{
  "address": "0x209171cb06CC774941BE965ca9a4e3603ff46B17",
  "abi": [
    {
      "inputs": [
        {
          "internalType": "address",
          "name": "target",
          "type": "address"
        }
      ],
      "name": "AddressEmptyCode",
      "type": "error"
    },
    {
      "inputs": [
        {
          "internalType": "address",
          "name": "account",
          "type": "address"
        }
      ],
      "name": "AddressInsufficientBalance",
      "type": "error"
    },
    {
      "inputs": [],
      "name": "FailedInnerCall",
      "type": "error"
    },
    {
      "inputs": [],
      "name": "InvalidInitialization",
      "type": "error"
    },
    {
      "inputs": [],
      "name": "NotInitializing",
      "type": "error"
    },
    {
      "inputs": [
        {
          "internalType": "address",
          "name": "sender",
          "type": "address"
        }
      ],
      "name": "OnlyStaker",
      "type": "error"
    },
    {
      "inputs": [
        {
          "internalType": "address",
          "name": "owner",
          "type": "address"
        }
      ],
      "name": "OwnableInvalidOwner",
      "type": "error"
    },
    {
      "inputs": [
        {
          "internalType": "address",
          "name": "account",
          "type": "address"
        }
      ],
      "name": "OwnableUnauthorizedAccount",
      "type": "error"
    },
    {
      "inputs": [
        {
          "internalType": "address",
          "name": "token",
          "type": "address"
        }
      ],
      "name": "SafeERC20FailedOperation",
      "type": "error"
    },
    {
      "inputs": [
        {
          "internalType": "bytes",
          "name": "data",
          "type": "bytes"
        }
      ],
      "name": "TransferFailed",
      "type": "error"
    },
    {
      "anonymous": false,
      "inputs": [
        {
          "indexed": true,
          "internalType": "address",
          "name": "asset",
          "type": "address"
        },
        {
          "indexed": true,
          "internalType": "contract IStakingStrategy",
          "name": "strategy",
          "type": "address"
        }
      ],
      "name": "AddStrategy",
      "type": "event"
    },
    {
      "anonymous": false,
      "inputs": [
        {
          "indexed": false,
          "internalType": "uint64",
          "name": "version",
          "type": "uint64"
        }
      ],
      "name": "Initialized",
      "type": "event"
    },
    {
      "anonymous": false,
      "inputs": [
        {
          "indexed": true,
          "internalType": "address",
          "name": "previousOwner",
          "type": "address"
        },
        {
          "indexed": true,
          "internalType": "address",
          "name": "newOwner",
          "type": "address"
        }
      ],
      "name": "OwnershipTransferStarted",
      "type": "event"
    },
    {
      "anonymous": false,
      "inputs": [
        {
          "indexed": true,
          "internalType": "address",
          "name": "previousOwner",
          "type": "address"
        },
        {
          "indexed": true,
          "internalType": "address",
          "name": "newOwner",
          "type": "address"
        }
      ],
      "name": "OwnershipTransferred",
      "type": "event"
    },
    {
      "anonymous": false,
      "inputs": [
        {
          "indexed": true,
          "internalType": "address",
          "name": "asset",
          "type": "address"
        },
        {
          "indexed": true,
          "internalType": "contract IStakingStrategy",
          "name": "strategy",
          "type": "address"
        },
        {
          "indexed": false,
          "internalType": "uint256",
          "name": "withdrawnAmount",
          "type": "uint256"
        }
      ],
      "name": "RemoveStrategy",
      "type": "event"
    },
    {
      "anonymous": false,
      "inputs": [
        {
          "indexed": true,
          "internalType": "address",
          "name": "asset",
          "type": "address"
        },
        {
          "indexed": false,
          "internalType": "uint256",
          "name": "index",
          "type": "uint256"
        }
      ],
      "name": "SetActiveStrategy",
      "type": "event"
    },
    {
      "anonymous": false,
      "inputs": [
        {
          "indexed": false,
          "internalType": "address",
          "name": "depositor",
          "type": "address"
        }
      ],
      "name": "SetDepositor",
      "type": "event"
    },
    {
      "anonymous": false,
      "inputs": [
        {
          "indexed": false,
          "internalType": "address",
          "name": "staker",
          "type": "address"
        }
      ],
      "name": "SetStaker",
      "type": "event"
    },
    {
      "anonymous": false,
      "inputs": [
        {
          "indexed": true,
          "internalType": "address",
          "name": "asset",
          "type": "address"
        },
        {
          "indexed": false,
          "internalType": "uint256",
          "name": "amount",
          "type": "uint256"
        }
      ],
      "name": "Stake",
      "type": "event"
    },
    {
      "anonymous": false,
      "inputs": [
        {
          "indexed": true,
          "internalType": "address",
          "name": "asset",
          "type": "address"
        },
        {
          "indexed": false,
          "internalType": "uint256",
          "name": "amount",
          "type": "uint256"
        }
      ],
      "name": "Withdraw",
      "type": "event"
    },
    {
      "inputs": [],
      "name": "ETH_ADDRESS",
      "outputs": [
        {
          "internalType": "address",
          "name": "",
          "type": "address"
        }
      ],
      "stateMutability": "view",
      "type": "function"
    },
    {
      "inputs": [],
      "name": "acceptOwnership",
      "outputs": [],
      "stateMutability": "nonpayable",
      "type": "function"
    },
    {
      "inputs": [
        {
          "internalType": "address",
          "name": "",
          "type": "address"
        }
      ],
      "name": "activeStrategyIndex",
      "outputs": [
        {
          "internalType": "uint256",
          "name": "",
          "type": "uint256"
        }
      ],
      "stateMutability": "view",
      "type": "function"
    },
    {
      "inputs": [
        {
          "internalType": "address",
          "name": "asset",
          "type": "address"
        },
        {
          "internalType": "contract IStakingStrategy",
          "name": "strategy",
          "type": "address"
        }
      ],
      "name": "addStrategy",
      "outputs": [],
      "stateMutability": "nonpayable",
      "type": "function"
    },
    {
      "inputs": [],
      "name": "depositor",
      "outputs": [
        {
          "internalType": "address",
          "name": "",
          "type": "address"
        }
      ],
      "stateMutability": "view",
      "type": "function"
    },
    {
      "inputs": [
        {
          "internalType": "address",
          "name": "asset",
          "type": "address"
        }
      ],
      "name": "getActiveStrategy",
      "outputs": [
        {
          "internalType": "contract IStakingStrategy",
          "name": "",
          "type": "address"
        }
      ],
      "stateMutability": "view",
      "type": "function"
    },
    {
      "inputs": [
        {
          "internalType": "address",
          "name": "asset",
          "type": "address"
        }
      ],
      "name": "getAssetTotal",
      "outputs": [
        {
          "internalType": "uint256",
          "name": "total",
          "type": "uint256"
        }
      ],
      "stateMutability": "nonpayable",
      "type": "function"
    },
    {
      "inputs": [
        {
          "internalType": "address",
          "name": "asset",
          "type": "address"
        }
      ],
      "name": "getAssetTotalNoUpdate",
      "outputs": [
        {
          "internalType": "uint256",
          "name": "total",
          "type": "uint256"
        }
      ],
      "stateMutability": "view",
      "type": "function"
    },
    {
      "inputs": [
        {
          "internalType": "address",
          "name": "_owner",
          "type": "address"
        },
        {
          "internalType": "address",
          "name": "_staker",
          "type": "address"
        }
      ],
      "name": "initialize",
      "outputs": [],
      "stateMutability": "nonpayable",
      "type": "function"
    },
    {
      "inputs": [],
      "name": "owner",
      "outputs": [
        {
          "internalType": "address",
          "name": "",
          "type": "address"
        }
      ],
      "stateMutability": "view",
      "type": "function"
    },
    {
      "inputs": [],
      "name": "pendingOwner",
      "outputs": [
        {
          "internalType": "address",
          "name": "",
          "type": "address"
        }
      ],
      "stateMutability": "view",
      "type": "function"
    },
    {
      "inputs": [
        {
          "internalType": "address",
          "name": "asset",
          "type": "address"
        },
        {
          "internalType": "uint256",
          "name": "index",
          "type": "uint256"
        }
      ],
      "name": "removeStrategy",
      "outputs": [],
      "stateMutability": "nonpayable",
      "type": "function"
    },
    {
      "inputs": [],
      "name": "renounceOwnership",
      "outputs": [],
      "stateMutability": "nonpayable",
      "type": "function"
    },
    {
      "inputs": [
        {
          "internalType": "address",
          "name": "asset",
          "type": "address"
        },
        {
          "internalType": "uint256",
          "name": "index",
          "type": "uint256"
        }
      ],
      "name": "setActiveStrategy",
      "outputs": [],
      "stateMutability": "nonpayable",
      "type": "function"
    },
    {
      "inputs": [
        {
          "internalType": "address",
          "name": "_depositor",
          "type": "address"
        }
      ],
      "name": "setDepositor",
      "outputs": [],
      "stateMutability": "nonpayable",
      "type": "function"
    },
    {
      "inputs": [
        {
          "internalType": "address",
          "name": "_staker",
          "type": "address"
        }
      ],
      "name": "setStaker",
      "outputs": [],
      "stateMutability": "nonpayable",
      "type": "function"
    },
    {
      "inputs": [
        {
          "internalType": "address",
          "name": "asset",
          "type": "address"
        },
        {
          "internalType": "uint256",
          "name": "amount",
          "type": "uint256"
        }
      ],
      "name": "stake",
      "outputs": [],
      "stateMutability": "payable",
      "type": "function"
    },
    {
      "inputs": [],
      "name": "staker",
      "outputs": [
        {
          "internalType": "address",
          "name": "",
          "type": "address"
        }
      ],
      "stateMutability": "view",
      "type": "function"
    },
    {
      "inputs": [
        {
          "internalType": "address",
          "name": "",
          "type": "address"
        },
        {
          "internalType": "uint256",
          "name": "",
          "type": "uint256"
        }
      ],
      "name": "strategies",
      "outputs": [
        {
          "internalType": "contract IStakingStrategy",
          "name": "",
          "type": "address"
        }
      ],
      "stateMutability": "view",
      "type": "function"
    },
    {
      "inputs": [
        {
          "internalType": "address",
          "name": "newOwner",
          "type": "address"
        }
      ],
      "name": "transferOwnership",
      "outputs": [],
      "stateMutability": "nonpayable",
      "type": "function"
    },
    {
      "inputs": [
        {
          "internalType": "address",
          "name": "asset",
          "type": "address"
        },
        {
          "internalType": "uint256",
          "name": "amount",
          "type": "uint256"
        }
      ],
      "name": "withdraw",
      "outputs": [],
      "stateMutability": "nonpayable",
      "type": "function"
    },
    {
      "stateMutability": "payable",
      "type": "receive"
    }
  ],
  "transactionHash": "0xf778eecb2cf3460d752f65d6ae0d9137b4ab88678c9b300ee971ebc7af55ec8c",
  "args": [],
  "numDeployments": 1,
  "solcInputHash": "eaceff6fd174977f5c44ceedc14b7657",
  "bytecode": "0x608060405234801561001057600080fd5b50611651806100206000396000f3fe6080604052600436106100fe5760003560e01c806310cc25d71461010a578063124a38d81461014a57806318066943146101775780631e18086e14610199578063485cc955146101b95780635ebaf1db146101d9578063715018a6146101f957806379ba50971461020e5780638da5cb5b1461022357806390bb5698146102385780639f8f324414610258578063a29a43bb14610278578063a734f06e14610298578063adc9772e146102c0578063b2419083146102d3578063c7c4ff46146102f3578063e30c397814610313578063ea682eeb14610328578063f2c098b714610348578063f2fde38b14610368578063f3fef3a31461038857600080fd5b3661010557005b600080fd5b34801561011657600080fd5b50610137610125366004611456565b60016020526000908152604090205481565b6040519081526020015b60405180910390f35b34801561015657600080fd5b5061016a610165366004611456565b6103a8565b6040516101419190611473565b34801561018357600080fd5b50610197610192366004611487565b6103f4565b005b3480156101a557600080fd5b506101976101b43660046114c0565b610464565b3480156101c557600080fd5b506101976101d4366004611487565b6104c5565b3480156101e557600080fd5b5060025461016a906001600160a01b031681565b34801561020557600080fd5b506101976105da565b34801561021a57600080fd5b506101976105ee565b34801561022f57600080fd5b5061016a610636565b34801561024457600080fd5b50610137610253366004611456565b610651565b34801561026457600080fd5b5061016a6102733660046114c0565b61072f565b34801561028457600080fd5b50610197610293366004611456565b610767565b3480156102a457600080fd5b5061016a73eeeeeeeeeeeeeeeeeeeeeeeeeeeeeeeeeeeeeeee81565b6101976102ce3660046114c0565b6107c5565b3480156102df57600080fd5b506101376102ee366004611456565b61086a565b3480156102ff57600080fd5b5060035461016a906001600160a01b031681565b34801561031f57600080fd5b5061016a610951565b34801561033457600080fd5b506101976103433660046114c0565b61095c565b34801561035457600080fd5b50610197610363366004611456565b610bfa565b34801561037457600080fd5b50610197610383366004611456565b610c4d565b34801561039457600080fd5b506101976103a33660046114c0565b610cbe565b6001600160a01b0381166000908152602081815260408083206001909252822054815481106103d9576103d96114ec565b6000918252602090912001546001600160a01b031692915050565b6103fc610d63565b6001600160a01b03828116600081815260208181526040808320805460018101825590845291832090910180546001600160a01b0319169486169485179055517ff5356ea32b86d53c1386eda4d869e6027a0a1d4edebb9c2f778d9f8559d236aa9190a35050565b61046c610d63565b6001600160a01b03821660008181526001602052604090819020839055517ff0703abfcce99547a9dfd5745a76d9d98e149d7a1e1682bdcba8e517ca3311a1906104b99084815260200190565b60405180910390a25050565b60006104cf610d95565b805490915060ff600160401b82041615906001600160401b03166000811580156104f65750825b90506000826001600160401b031660011480156105125750303b155b905081158015610520575080155b1561053e5760405163f92ee8a960e01b815260040160405180910390fd5b84546001600160401b0319166001178555831561056757845460ff60401b1916600160401b1785555b600280546001600160a01b0319166001600160a01b03881617905561058b87610db9565b83156105d157845460ff60401b19168555604051600181527fc7f505b2f371ae2175ee4913f4499e1f2633a7b5936321eed1cdaeb6115181d29060200160405180910390a15b50505050505050565b6105e2610d63565b6105ec6000610dca565b565b33806105f8610951565b6001600160a01b03161461062a578060405163118cdaa760e01b81526004016106219190611473565b60405180910390fd5b61063381610dca565b50565b600080610641610df1565b546001600160a01b031692915050565b6000805b6001600160a01b038316600090815260208190526040902054811015610729576001600160a01b038316600090815260208190526040812080548390811061069f5761069f6114ec565b6000918252602091829020015460408051636a4e494f60e01b815290516001600160a01b0390921693508392636a4e494f926004808401938290030181865afa1580156106f0573d6000803e3d6000fd5b505050506040513d601f19601f820116820180604052508101906107149190611502565b61071e9084611531565b925050600101610655565b50919050565b6000602052816000526040600020818154811061074b57600080fd5b6000918252602090912001546001600160a01b03169150829050565b61076f610d63565b600280546001600160a01b0319166001600160a01b0383161790556040517f6901da73a3480b0bbd7deb64f259ff29a76ce811c7a3e5cf495f0e1eb4fb4dfb906107ba908390611473565b60405180910390a150565b6002546001600160a01b031633146107f25733604051631f18623160e21b81526004016106219190611473565b73eeeeeeeeeeeeeeeeeeeeeeeeeeeeeeeeeeeeeeed196001600160a01b038316016108255761082034610e15565b61082f565b61082f8282610e8e565b816001600160a01b03167febedb8b3c678666e7f36970bc8f57abf6d8fa2e828c0da91ea5b75bf68ed101a826040516104b991815260200190565b6000805b6001600160a01b038316600090815260208190526040902054811015610729576001600160a01b03831660009081526020819052604081208054839081106108b8576108b86114ec565b9060005260206000200160009054906101000a90046001600160a01b03169050806001600160a01b031663f48ccabd6040518163ffffffff1660e01b81526004016020604051808303816000875af1158015610918573d6000803e3d6000fd5b505050506040513d601f19601f8201168201806040525081019061093c9190611502565b6109469084611531565b92505060010161086e565b600080610641610f64565b610964610d63565b6001600160a01b038216600090815260208190526040812080548390811061098e5761098e6114ec565b60009182526020808320909101546001600160a01b038681168452918390526040832054911692506109c290600190611544565b6001600160a01b0385166000908152602081905260409020805491925090829081106109f0576109f06114ec565b60009182526020808320909101546001600160a01b038781168452918390526040909220805491909216919085908110610a2c57610a2c6114ec565b600091825260208083209190910180546001600160a01b0319166001600160a01b0394851617905591861681529081905260409020805480610a7057610a70611557565b60008281526020808220830160001990810180546001600160a01b03191690559092019092556001600160a01b0386168252600190526040902054839003610ace576001600160a01b03841660009081526001602052604090208190555b6000826001600160a01b0316632e1a7d4d846001600160a01b031663f48ccabd6040518163ffffffff1660e01b81526004016020604051808303816000875af1158015610b1f573d6000803e3d6000fd5b505050506040513d601f19601f82011682018060405250810190610b439190611502565b6040518263ffffffff1660e01b8152600401610b6191815260200190565b6020604051808303816000875af1158015610b80573d6000803e3d6000fd5b505050506040513d601f19601f82011682018060405250810190610ba49190611502565b9050826001600160a01b0316856001600160a01b03167fc11b81149ee1579e4f558be47e79ebdefb8b0882f833687661c60ea700f2f79c83604051610beb91815260200190565b60405180910390a35050505050565b610c02610d63565b600380546001600160a01b0319166001600160a01b0383161790556040517fe5845022cf6cbbb6597b6e3a99005dd423016c1e7ac69c6e621cd47c38a3f392906107ba908390611473565b610c55610d63565b6000610c5f610f64565b80546001600160a01b0319166001600160a01b0384169081178255909150610c85610636565b6001600160a01b03167f38d16b8cac22d99fc7c124b9cd0de2d3fa1faef420bfe791d8c362d765e2270060405160405180910390a35050565b6002546001600160a01b03163314610ceb5733604051631f18623160e21b81526004016106219190611473565b73eeeeeeeeeeeeeeeeeeeeeeeeeeeeeeeeeeeeeeed196001600160a01b03831601610d1e57610d1981610f88565b610d28565b610d2882826110aa565b816001600160a01b03167f884edad9ce6fa2440d8a54cc123490eb96d2768479d49ff9c7366125a9424364826040516104b991815260200190565b33610d6c610636565b6001600160a01b0316146105ec573360405163118cdaa760e01b81526004016106219190611473565b7ff0c57e16840df040f15088dc2f81fe391c3923bec73e23a9662efc9c229c6a0090565b610dc1611156565b6106338161117b565b6000610dd4610f64565b80546001600160a01b03191681559050610ded826111ad565b5050565b7f9016d09d72d40fdae2fd8ceac6b6234c7706214fd39c1cd1e609a0528c19930090565b6000610e3473eeeeeeeeeeeeeeeeeeeeeeeeeeeeeeeeeeeeeeee6103a8565b60405163b6b55f2560e01b8152600481018490529091506001600160a01b0382169063b6b55f259084906024016000604051808303818588803b158015610e7a57600080fd5b505af11580156105d1573d6000803e3d6000fd5b6000610e99836103a8565b9050610eb06001600160a01b038416333085611209565b60405163095ea7b360e01b81526001600160a01b0384169063095ea7b390610ede908490869060040161156d565b6020604051808303816000875af1158015610efd573d6000803e3d6000fd5b505050506040513d601f19601f82011682018060405250810190610f219190611586565b5060405163b6b55f2560e01b8152600481018390526001600160a01b0382169063b6b55f2590602401600060405180830381600087803b158015610e7a57600080fd5b7f237e158222e3e6968b72b9db0d8043aacf074ad9f650f0d1606b4d82ee432c0090565b6000610fa773eeeeeeeeeeeeeeeeeeeeeeeeeeeeeeeeeeeeeeee6103a8565b905060006001600160a01b0382161561102857604051632e1a7d4d60e01b8152600481018490526001600160a01b03831690632e1a7d4d906024016020604051808303816000875af1158015611001573d6000803e3d6000fd5b505050506040513d601f19601f820116820180604052508101906110259190611502565b90505b60035460405160009182916001600160a01b039091169084908381818185875af1925050503d8060008114611079576040519150601f19603f3d011682016040523d82523d6000602084013e61107e565b606091505b5091509150816110a35780604051639a367e1760e01b815260040161062191906115cc565b5050505050565b60006110b5836103a8565b905060006001600160a01b0382161561113657604051632e1a7d4d60e01b8152600481018490526001600160a01b03831690632e1a7d4d906024016020604051808303816000875af115801561110f573d6000803e3d6000fd5b505050506040513d601f19601f820116820180604052508101906111339190611502565b90505b600354611150906001600160a01b03868116911683611270565b50505050565b61115e61129b565b6105ec57604051631afcd79f60e31b815260040160405180910390fd5b611183611156565b6001600160a01b03811661062a576000604051631e4fbdf760e01b81526004016106219190611473565b60006111b7610df1565b80546001600160a01b038481166001600160a01b031983168117845560405193945091169182907f8be0079c531659141344cd1fd0a4f28419497f9722a3daafe3b4186f6b6457e090600090a3505050565b6040516001600160a01b0384811660248301528381166044830152606482018390526111509186918216906323b872dd906084015b604051602081830303815290604052915060e01b6020820180516001600160e01b0383818316178352505050506112b5565b61129683846001600160a01b031663a9059cbb858560405160240161123e92919061156d565b505050565b60006112a5610d95565b54600160401b900460ff16919050565b60006112ca6001600160a01b0384168361130f565b905080516000141580156112ef5750808060200190518101906112ed9190611586565b155b156112965782604051635274afe760e01b81526004016106219190611473565b606061131d83836000611326565b90505b92915050565b60608147101561134b573060405163cd78605960e01b81526004016106219190611473565b600080856001600160a01b0316848660405161136791906115ff565b60006040518083038185875af1925050503d80600081146113a4576040519150601f19603f3d011682016040523d82523d6000602084013e6113a9565b606091505b50915091506113b98683836113c5565b925050505b9392505050565b6060826113da576113d582611418565b6113be565b81511580156113f157506001600160a01b0384163b155b156114115783604051639996b31560e01b81526004016106219190611473565b50806113be565b8051156114285780518082602001fd5b604051630a12f52160e11b815260040160405180910390fd5b6001600160a01b038116811461063357600080fd5b60006020828403121561146857600080fd5b81356113be81611441565b6001600160a01b0391909116815260200190565b6000806040838503121561149a57600080fd5b82356114a581611441565b915060208301356114b581611441565b809150509250929050565b600080604083850312156114d357600080fd5b82356114de81611441565b946020939093013593505050565b634e487b7160e01b600052603260045260246000fd5b60006020828403121561151457600080fd5b5051919050565b634e487b7160e01b600052601160045260246000fd5b808201808211156113205761132061151b565b818103818111156113205761132061151b565b634e487b7160e01b600052603160045260246000fd5b6001600160a01b03929092168252602082015260400190565b60006020828403121561159857600080fd5b815180151581146113be57600080fd5b60005b838110156115c35781810151838201526020016115ab565b50506000910152565b60208152600082518060208401526115eb8160408501602087016115a8565b601f01601f19169190910160400192915050565b600082516116118184602087016115a8565b919091019291505056fea26469706673582212209d4e3e406072c2349ec9ad39692b1c72c282e5567bdfeb37f66ee614b0622a8a64736f6c63430008170033",
  "devdoc": {
    "errors": {
      "AddressEmptyCode(address)": [
        {
          "details": "There's no code at `target` (it is not a contract)."
        }
      ],
      "AddressInsufficientBalance(address)": [
        {
          "details": "The ETH balance of the account is not enough to perform the operation."
        }
      ],
      "FailedInnerCall()": [
        {
          "details": "A call to an address target failed. The target may have reverted."
        }
      ],
      "InvalidInitialization()": [
        {
          "details": "The contract is already initialized."
        }
      ],
      "NotInitializing()": [
        {
          "details": "The contract is not initializing."
        }
      ],
      "OwnableInvalidOwner(address)": [
        {
          "details": "The owner is not a valid owner account. (eg. `address(0)`)"
        }
      ],
      "OwnableUnauthorizedAccount(address)": [
        {
          "details": "The caller account is not authorized to perform an operation."
        }
      ],
      "SafeERC20FailedOperation(address)": [
        {
          "details": "An operation with an ERC20 token failed."
        }
      ]
    },
    "events": {
      "Initialized(uint64)": {
        "details": "Triggered when the contract has been initialized or reinitialized."
      }
    },
    "kind": "dev",
    "methods": {
      "acceptOwnership()": {
        "details": "The new owner accepts the ownership transfer."
      },
      "owner()": {
        "details": "Returns the address of the current owner."
      },
      "pendingOwner()": {
        "details": "Returns the address of the pending owner."
      },
      "renounceOwnership()": {
        "details": "Leaves the contract without owner. It will not be possible to call `onlyOwner` functions. Can only be called by the current owner. NOTE: Renouncing ownership will leave the contract without an owner, thereby disabling any functionality that is only available to the owner."
      },
      "transferOwnership(address)": {
        "details": "Starts the ownership transfer of the contract to a new account. Replaces the pending transfer if there is one. Can only be called by the current owner."
      }
    },
    "version": 1
  },
  "userdoc": {
    "kind": "user",
    "methods": {
      "getActiveStrategy(address)": {
        "notice": "---------------------------------  View Functions  ---------------------------------"
      },
      "setStaker(address)": {
        "notice": "----------------------------------  Admin Functions  ----------------------------------"
      },
      "stake(address,uint256)": {
        "notice": "--------------------------------  Staker Functions  --------------------------------"
      }
    },
    "notice": "The purpose of this contract is solely to take in assets and send them to strategies. Upon withdrawal, all assets go to the depositor. TODO: The depositor needs to be set after deployment",
    "version": 1
  },
  "storageLayout": {
    "storage": [
      {
        "astId": 4102,
        "contract": "src/StakingManager.sol:StakingManager",
        "label": "strategies",
        "offset": 0,
        "slot": "0",
        "type": "t_mapping(t_address,t_array(t_contract(IStakingStrategy)5042)dyn_storage)"
      },
      {
        "astId": 4106,
        "contract": "src/StakingManager.sol:StakingManager",
        "label": "activeStrategyIndex",
        "offset": 0,
        "slot": "1",
        "type": "t_mapping(t_address,t_uint256)"
      },
      {
        "astId": 4108,
        "contract": "src/StakingManager.sol:StakingManager",
        "label": "staker",
        "offset": 0,
        "slot": "2",
        "type": "t_address"
      },
      {
        "astId": 4110,
        "contract": "src/StakingManager.sol:StakingManager",
        "label": "depositor",
        "offset": 0,
        "slot": "3",
        "type": "t_address"
      }
    ],
    "types": {
      "t_address": {
        "encoding": "inplace",
        "label": "address",
        "numberOfBytes": "20"
      },
      "t_array(t_contract(IStakingStrategy)5042)dyn_storage": {
        "base": "t_contract(IStakingStrategy)5042",
        "encoding": "dynamic_array",
        "label": "contract IStakingStrategy[]",
        "numberOfBytes": "32"
      },
      "t_contract(IStakingStrategy)5042": {
        "encoding": "inplace",
        "label": "contract IStakingStrategy",
        "numberOfBytes": "20"
      },
      "t_mapping(t_address,t_array(t_contract(IStakingStrategy)5042)dyn_storage)": {
        "encoding": "mapping",
        "key": "t_address",
        "label": "mapping(address => contract IStakingStrategy[])",
        "numberOfBytes": "32",
        "value": "t_array(t_contract(IStakingStrategy)5042)dyn_storage"
      },
      "t_mapping(t_address,t_uint256)": {
        "encoding": "mapping",
        "key": "t_address",
        "label": "mapping(address => uint256)",
        "numberOfBytes": "32",
        "value": "t_uint256"
      },
      "t_uint256": {
        "encoding": "inplace",
        "label": "uint256",
        "numberOfBytes": "32"
      }
    }
  }
}